:020000040800F2
:10000000680F00243903000863900008938A0008F1
:1000100061900008A5080008CDAA000800000000B3
:1000200000000000000000000000000079940008BB
:10003000050D000800000000659000088994000884
:100040005703000857030008570300085703000828
:100050005703000857030008570300085703000818
:10006000570300085703000857030008A9080008B1
:10007000B5080008C1080008570300085703000826
:1000800057030008570300085703000857030008E8
:1000900057030008570300085703000857030008D8
:1000A00057030008570300085703000857030008C8
:1000B0002D9600085703000857030008570300084F
:1000C00057030008570300085703000857030008A8
:1000D0005703000857030008570300085703000898
:1000E00057030008570300080000000057030008EA
:1000F0005703000857030008570300085703000878
:100100005703000857030008570300085703000867
:10011000999D00085703000857030008570300087B
:100120005703000857030008570300085703000847
:100130005703000857030008570300085703000837
:1001400000000000000000000000000000000000AF
:100150005703000857030008570300085703000817
:100160005703000857030008570300085703000807
:1001700057030008570300085703000857030008F7
:1001800057030008570300085703000857030008E7
:1001900057030008570300085703000857030008D7
:1001A00057030008570300085703000857030008C7
:1001B00057030008570300085703000857030008B7
:1001C00057030008570300085703000857030008A7
:1001D0005703000857030008570300085703000897
:1001E0005703000857030008570300085703000887
:1001F0005703000857030008570300085703000877
:100200005703000857030008570300085703000866
:100210005703000857030008570300085703000856
:1002200057030008570300085703000800000000A8
:100230005703000857030008000000005703000898
:100240005703000857030008570300085703000826
:100250005703000857030008570300085703000816
:100260005703000857030008570300085703000806
:100270005703000857030008570300080000000058
:100280005703000857030008570300080000000048
:10029000000000005703000800F002F800F03CF8EE
:1002A0000AA090E8000C82448344AAF10107DA45D1
:1002B00001D100F031F8AFF2090EBAE80F0013F0E7
:1002C000010F18BFFB1A43F00103184748AF0000A5
:1002D00068AF0000103A24BF78C878C1FAD8520736
:1002E00024BF30C830C144BF04680C6070470000B0
:1002F0000023002400250026103A28BF78C1FBD82F
:10030000520728BF30C148BF0B6070471FB50AF0C5
:100310002DFF1FBD10B510BD00F06CF91146FFF7A1
:10032000F5FF0AF0A3FC00F08AF903B4FFF7F2FF2F
:1003300003BC00F091F900000A4880470A48804752
:100340000A480047FEE7FEE7FEE7FEE7FEE7FEE7B6
:10035000FEE7FEE7FEE7FEE705480649064A074BCB
:10036000704700000D0D000835950008990200083F
:1003700068090024680F0024680B0024680B00241F
:1003800053EA020C00F069802DE9F04B4FF00006B3
:10039000002B1FBFB3FA83F503FA05F424FA05F620
:1003A0005E4012BF1643B2FA82F502FA05F4C5F1B7
:1003B00020051EBF22FA05FC44EA0C04203556EA4B
:1003C000044C4FEA144418BF641C4FF000084FF06F
:1003D0000009904271EB030C39D3002919BFB1FA1F
:1003E00081F701FA07F6B0FA80F700FA07F6C7F1CD
:1003F00020071EBF20FA07FC46EA0C062037B6FB92
:10040000F4FCA7EB0507103F07F01F0BCBF120060C
:100410000CFA0BFB2CFA06F644BFB3460026202F3D
:10042000A4BF5E464FF0000B5BEA060C08BF4FF01E
:10043000010B19EB0B09ABFB027C48EB0608C01B58
:1004400006FB02CC0BFB03CC71EB0C01C1E70B46A6
:10045000024641464846BDE8F08B13B54FF0000018
:100460004FF00001AFF30080BDE81C407047032A45
:1004700040F2308010F0030C00F0158011F8013BC1
:10048000BCF1020F624498BF11F801CB00F8013BA8
:1004900038BF11F8013BA2F1040298BF00F801CB6C
:1004A00038BF00F8013B11F0030300F02580083A43
:1004B000C0F0088051F8043B083A51F804CBA0E89A
:1004C0000810F5E7121D5CBF51F8043B40F8043BEF
:1004D000AFF30080D20724BF11F8013B11F801CB24
:1004E00048BF11F8012B24BF00F8013B00F801CBF5
:1004F00048BF00F8012B704710B5203AC0F00B80C0
:10050000B1E81850203AA0E81850B1E81850A0E817
:100510001850BFF4F5AF5FEA027C24BFB1E8185071
:10052000A0E8185044BF18C918C0BDE810405FEAE1
:10053000827C24BF51F8043B40F8043B08BF70475D
:10054000D20728BF31F8023B48BF11F8012B28BF62
:1005500020F8023B48BF00F8012B70474FF0000223
:100560000429C0F0128010F0030C00F01B80CCF1C5
:10057000040CBCF1020F18BF00F8012BA8BF20F833
:10058000022BA1EB0C0100F00DB85FEAC17C24BF87
:1005900000F8012B00F8012B48BF00F8012B704731
:1005A0004FF0000200B5134694469646203922BF0C
:1005B000A0E80C50A0E80C50B1F12001BFF4F7AF57
:1005C000090728BFA0E80C5048BF0CC05DF804EB39
:1005D000890028BF40F8042B08BF704748BF20F8A7
:1005E000022B11F0804F18BF00F8012B70477047A5
:1005F00070477047754600F02BF8AE460500694617
:10060000534620F00700854618B020B5FFF7A4FE3A
:10061000BDE820404FF000064FF000074FF0000803
:100620004FF0000B21F00701AC46ACE8C009ACE884
:10063000C009ACE8C009ACE8C0098D46704710B5E8
:100640000446AFF300802046BDE81040FFF76DBEC2
:10065000004870470809002401491820ABBEFEE796
:10066000260002007047000070B53A490546006850
:10067000884202D0384A904202D1D1F8080302E001
:100680003648D0F8080310F4403F11D005F084FB41
:1006900004466868B0F5803F06D0B0F5003F03D04F
:1006A000B0F5403F27D101E0000C18E0A40822E09B
:1006B00000214FF4002004F017F904466868810314
:1006C000890B18D181140C2915D2DFE801F014062A
:1006D00006060606060B0D0F1113800C4000B4FB36
:1006E000F0F408E0240906E0640904E0A40902E04B
:1006F000E40900E0240A03F05BFC41F203018842B4
:1007000008D8174884422868816813D821F480717A
:10071000816070BD13496008884204D828688168E8
:1007200021F44071F4E71049884206D828688168AE
:1007300021F4407141F48071EAE70C49884228684D
:10074000816804D821F4407141F40071E0E741F47C
:100750004071DDE7002002400021024000600258A5
:10076000002D3101105E5F0020BCBE0040787D018D
:1007700010B5846B616D11F0500F06D0616DC90624
:1007800025D5204601F078F810BD606D40F400706A
:10079000606520680168090707D508F09BF990B1EA
:1007A0002068C068800403D50DE0C06880070AD1C6
:1007B000606D20F480706065606DC00403D4606D6E
:1007C00040F001006065204601F054F810BDE16C76
:1007D000C96CBDE81040084710B5806B416D41F011
:1007E00040014165816D41F00401816501F044F8EB
:1007F00010BD10B5806B01F03EF810BD70B5044619
:100800000068816811F0010F40D18168204A1142CF
:100810002DD18168D5432940491C816003F0CEFB6E
:100820001C49064620681C4B884201D0984201D1E1
:100830001A4A00E01A4A9268984202F01F0200D059
:10084000014681421DD0E2B120E0816811F0010F24
:1008500003D181682940491C816003F0AFFB801BF4
:1008600002280ED920680068C043C00709D0606D17
:1008700040F010006065A06D40F00100A06501200F
:1008800070BD20680168C943C907DED1002070BD72
:100890003F0000800020024000210240002302406F
:1008A00000630258FEE70000014801F0B3BE0000FB
:1008B000F0050024014801F0ADBE000068060024E8
:1008C000014801F0A7BE0000E0060024294A0168A3
:1008D00091423AD0274A1832914236D0254A3032D6
:1008E000914232D0234A483291422ED0214A60327E
:1008F00091422AD01F4A7832914226D01D4A903226
:10090000914222D01B4AA83291421ED01A4A9142EB
:100910001BD0194A1832914217D0174A30329142EF
:1009200013D0154A483291420FD0134A6032914297
:100930000BD0114A7832914207D00F4A903291423F
:1009400003D00D4AA832914211D1CAB21823103AED
:10095000B2FBF3F26FF30901032A02F00703074A1F
:10096000D25CC26500D9091D81650846704721F037
:10097000FF01F9E7100002401004024076B10008C0
:1009800030B5224A012301689142CAB21BD01F4CE4
:100990001434A14217D01D4C2834A14213D01B4C53
:1009A0003C34A1420FD0194C5034A1420BD0174C0B
:1009B0006434A14207D0154C7834A14203D0134CC3
:1009C0008C34A1420CD11421114C083AB2FBF1F144
:1009D0000F4A803201F01F0504EB8101AB4010E0AB
:1009E0000C4D1824103A0D44B2FBF4F1A82D00D898
:1009F0000831094A01F01F0402EB8101064AA340B5
:100A00008032603080E80E0030BD0000085402588B
:100A100000580258F0FBFDBF0008024010B50279F3
:100A2000531E072B2DD8174C0168A1421BD0154C23
:100A30001434A14217D0134C2834A14213D0114CC6
:100A40003C34A1420FD00F4C5034A1420BD00D4C7E
:100A50006434A14207D00B4C7834A14203D0094C36
:100A60008C34A14203D10849074C443102E00749C4
:100A7000064C443104EB8202C0E91B21012199405C
:100A8000416710BD08540258FC580258FC08024047
:100A900010B583694FF0C074826A0146002053B1DB
:100AA000B3F5005F15D072B1012A0CD0022A0AD02A
:100AB000032A09D104E01AB1012A06D0022A03D17F
:100AC000C96AC90100D5012010BDC96AA142FAD086
:100AD00010BD002AF7D0012AF2D0022AF3D0032A4F
:100AE000F3D010BD2DE9F04F804E804FDFF8FC9120
:100AF0001836DFF8F8A148370468856D0AF1300A26
:100B0000DFF8ECB14C45DFF8ECC1DFF8ECE16DD07B
:100B1000B4426BD0544569D0BC4267D0DFF8D08175
:100B2000A8F11808444561D05C455FD064455DD0AC
:100B300074455BD0DFF8C481444557D0DFF8BC81F1
:100B400008F11808444551D0DFF8B08108F13008A9
:100B500044454BD0DFF8A48108F14808444545D00E
:100B6000DFF8988108F1600844453FD0DFF88C81B8
:100B700008F17808444539D0DFF8808108F1900801
:100B8000444533D0DFF8748108F1A80844452DD0DE
:100B9000DFF86C81444529D0DFF8648108F114083E
:100BA000444523D0DFF8588108F1280844451DD07A
:100BB000DFF84C8108F13C08444517D0DFF840814C
:100BC00008F15008444511D0DFF8348108F1640879
:100BD00044450BD0DFF8288108F17808444505D05A
:100BE000DFF81C8108F18C08444509D1D0E9194887
:100BF000C4F80480C46E1CB1D0E91C48C4F8048059
:100C000004684C452ED0B4422CD054452AD0BC4266
:100C100028D0374E183EB44224D05C4522D06445DB
:100C200020D074451ED0354EB4421BD0334E1836FA
:100C3000B44217D0314E3036B44213D02F4E48361E
:100C4000B4420FD02D4E6036B4420BD02B4E7836C6
:100C5000B44207D0294E9036B44203D0274EA8366E
:100C6000B44215D190F85C603F2406F01F06B440F2
:100C7000AC600468256825F4802525602EE09A6024
:100C80000068C160BDE8F08F99600068C260F9E754
:100C90001B4EB4421BD01A4E1436B44217D0184E15
:100CA0002836B44213D0164E3C36B4420FD0144E00
:100CB0005036B4420BD0124E6436B44207D0104EB8
:100CC0007836B44203D00E4E8C36B442DAD190F866
:100CD0005C60012406F01F06B4406C600468636029
:100CE0008368402B0368CFD1C9E7000010000240A1
:100CF00088000240A0000240B800024010040240F8
:100D000008540258704772B6FEE7000005480549CE
:100D10000839026842F00202026008688004FCD5CB
:100D2000704700000C480258F0B503684FF6FC719C
:100D30006D4C426BD3F884508D4345EA8205C3F86D
:100D40008450036853F8845F068F25F47F0545EAD5
:100D500006451D60836B654D9F180268D2F8883088
:100D60008B4343EA8703C2F88830026852F8883F11
:100D7000868F23F4FE0343EA06431360066856F8A1
:100D8000A03FC26B8B4307EB420243EA820333600E
:100D9000076857F8A03FB0F8406023F4FE0343EA29
:100DA00006433B60D0E9103603FB06220368D3F804
:100DB000B0608E4346EA8206C3F8B0600368B0F8BC
:100DC0004860D3F8B07027F4FE0747EA0646C3F838
:100DD000B060D0E91267036806FB0722D3F8AC6065
:100DE0008E4346EA8206C3F8AC60D0E91467036814
:100DF00006FB0722D3F8F0608E4346EA8206C3F86A
:100E0000F0600368B0F85860D3F8F07027F47C17EE
:100E100047EA0646C3F8F0600368876D53F8C06F71
:100E200002EB47028E4346EA820119600168B0F87E
:100E30005C20D1F8C03023F47C1343EA0242C1F8AD
:100E4000C020016890F86020D1F8C03023F07C53B6
:100E500043EA0262C1F8C020416B04EB8101C16624
:100E6000826B01EB82020267C36B02EBC302426733
:100E7000D0E91034634302EB83028267D0E9123475
:100E8000634302EB8302C267D0E91434634302EB8D
:100E90008302C0F88020836D02EBC303C0F8843066
:100EA000C46D826E544303EB8403C0F88830046E33
:100EB000544303EB8402C0F89020AA420AD9D0F828
:100EC0009C20032142F02002C0F89C2080F898105A
:100ED0000120F0BD002200E004C1D0F890308B4228
:100EE000FAD80020F0BD000000AC0040FCD3004068
:100EF0002DE9F047684E0D4601689AB004464FF060
:100F00000009B14204D065A040F6621109F0F0FD7D
:100F1000286800283ED0012813D0022811D00328C9
:100F20000FD005280DD006280BD0072809D0092896
:100F300007D05AA040F6631109F0DAFD28680028AE
:100F400028D0686850B1B0F5004F07D0B0F5404FD9
:100F500004D052A040F6661109F0CAFDA868C8B1D5
:100F6000B0F5807F16D0B0F5007F13D0B0F5407F8C
:100F700010D0B0F5806F0DD0B0F5A06F0AD0B0F5ED
:100F8000E06F07D0B0F5006F04D044A040F66711C1
:100F900009F0AEFD94F85000012814D00027B046A7
:100FA000012084F8500015971697216841450ED10D
:100FB000494E0096304607F089FD8246206807F0CA
:100FC00085FD60B10EE002201AB0BDE8F087606DCB
:100FD00084F8507040F0200060650120F4E7BAF119
:100FE000000F09D0616D4FF0010941F020006065EC
:100FF000484684F85070E7E720684146884201D0AF
:10100000B04201D1354800E0354840F61F72D5F8AE
:1010100000C0344BBCF1000F23D0D0F808C0D5F885
:1010200004802CF4404C4CEA080CC0F808C0D4F8FA
:1010300000C08C4501D0B44507D18968B36801F080
:10104000010103F00103194302E0996801F0010175
:101050000029CDD12968AD6883682943934319439A
:1010600017E0856825F44045856025688D4201D0EC
:10107000B54207D18968B36801F0010103F00103AB
:10108000194302E0996801F001010029B0D181689B
:1010900091438160ACE70000002002402E2E2F44D7
:1010A0007269766572732F53544D333248377878AE
:1010B0005F48414C5F4472697665722F5372632FAB
:1010C00073746D3332683778785F68616C5F616420
:1010D000635F65782E630000002102400023024018
:1010E00000630258006002582DE9FC5F05460C467B
:1010F0000020FF49009001902868FE4FDFF8F8A318
:10110000884208D0B84206D0504504D0FBA040F633
:101110000D3109F0EDFC6068062831D00C282FD085
:1011200012282DD018282BD0B0F5807F28D0B0F50C
:10113000837F25D0B0F5867F22D0B0F5897F1FD080
:10114000B0F58C7F1CD0B0F5007F19D0A0F50071F0
:10115000063915D0B0F5037F12D0A0F50071123911
:101160000ED0B0F5067F0BD0B0F5407F08D0A0F5CB
:101170004071063904D0E1A040F60E3109F0B8FC08
:10118000A06890B1012810D002280ED003280CD0FE
:1011900004280AD0052808D0062806D0072804D03D
:1011A000D6A040F60F3109F0A3FCE068A0F5E0619D
:1011B000FF3907D0DF49884204D04FF43161CFA016
:1011C00009F096FC206904280BD050B1012808D002
:1011D000022806D0032804D0C8A040F6113109F037
:1011E00087FC95F838004FF6FF78012815D028685D
:1011F00007F050FC4108626928FA01F0904204D2DD
:1012000040F62131BDA009F073FC2069042819D0F3
:1012100095F83800012815D10FE0E86B6169401C92
:10122000B1FBF0F6286807F035FC410828FA01F018
:101230008642EAD940F61531E4E7B0A040F62731FE
:1012400009F056FCBB48E168DFF8EC82DFF8ECB24D
:101250008142DFF8EC92BB4E4BD0206801287DD054
:101260004845FCD0B0EB4901F9D0A0F149610839FB
:10127000F5D0A0F186511039F1D0B3498842EED0B3
:10128000A0F1C9514039EAD0B0498842E7D0B0490D
:10129000884263D0AF49884260D0AF4988425DD070
:1012A000B0425BD0AD49884258D0AD49884255D054
:1012B000404553D0AB49884250D0AB4988424DD0CD
:1012C000AA4988424AD0584548D0A949884245D0C1
:1012D000A849884242D0A84988427FD0A74A904274
:1012E0007CD088427AD0A649884277D040F62C310B
:1012F00071E07F482968814223D12068484520D089
:10130000A0F10661091F1CD0A0F14961083918D06D
:10131000A0F18651103914D08B49884211D08E49E2
:1013200088420ED0B0420CD08C49884209D08E49F8
:10133000884206D0584504D070A040F6323109F0FA
:10134000D7FB2868B84222D1206848451FD0A0F1B9
:101350000661091F1BD0A0F1496100E03EE0083999
:1013600015D0A0F18651103911D0774988420ED09E
:10137000794988420BD0B04209D07849884206D0DA
:10138000584504D05DA040F6363109F0B1FB29681C
:10139000514523D12068484520D0A0F10661091F9E
:1013A0001CD0A0F14961083918D0A0F1865110393C
:1013B00014D06549884211D0674988420ED0B042A6
:1013C0000CD06749884209D0404507D0654988421A
:1013D00004D040F63C3149A009F08AFB95F8500052
:1013E000012807D0012085F85000286807F06AFB23
:1013F00018B1C6E10220BDE8FC9F206800280DDB83
:1014000029680303CA6927D090FAA0F0B0FA80F0E7
:1014100000F01F03012098400243CA61D4E9001282
:101420004FF00C0C28681F23C1F384610CEA921C56
:1014300002F01F02604493409140026B9A430A43BA
:101440000263286807F03EFB8046286807F036FBF9
:1014500058EA000003D0EFE0C0F38460D8E72268C8
:10146000042328684FF0070CA16803EAD2531844FC
:101470004369C2F304520CFA02FC914023EA0C03C4
:101480000B4343613F4901200968B0EB117F07D14D
:1014900029686069D1F80C10C1F38201490008E0A5
:1014A0002868C168C906C1686069F5D501F01001F6
:1014B000490888402169042966D02B68226803EB1B
:1014C000810102F0F8420B6E024303F0004010432A
:1014D0000866607E30B1012804D008A040F68A3149
:1014E00009F006FB617E2A68206901296ED04CE074
:1014F0000020024000210240006002582E2E2F449E
:101500007269766572732F53544D33324837787849
:101510005F48414C5F4472697665722F5372632F46
:1015200073746D3332683778785F68616C5F6164BB
:10153000632E63000000FF470040C03A0000844B68
:10154000020030040008302E2000F0148000501DEE
:10155000000180210002B0250004002A0010603242
:10156000002090360080F03E0000214300005247EA
:101570000000B84F000084CB000052C7000021C318
:101580000000B8CF0010005C26E0002102EB8000D4
:10159000026E22F000420A430266207E38B1012822
:1015A00005D040F68E31AFF2AC0009F0A1FA217EF1
:1015B0002868226901290CD00021036902F01F026A
:1015C000914023F4F0420A43026135E04FF00041BC
:1015D000DCE74FF40061F0E728682178026E02F042
:1015E000F842B2EB816F03D1016E21F00041016638
:1015F00028682178426E02F0F842B2EB816F03D185
:10160000416E21F00041416628682178826E02F027
:10161000F842B2EB816F03D1816E21F00041816607
:1016200028682178C26E02F0F842B2EB816F03D1D4
:10163000C16E21F00041C1662868816811F0010F78
:101640007ED150F8C03F227BDFF8D4C1216802F080
:1016500018022CFA02FCC1F3130823EA08030CEA6F
:10166000010C43EA0C0303606E48E16881425FD1DC
:101670006D482968814222D12068484524D0A0F1D4
:101680000662121F33D0A0F14962083A31D0A0F1AE
:101690008652103A2FD0654A904226D0644A904232
:1016A00038D0B0422ED0634A904230D0624A904245
:1016B00001D1624E2EE058452BD1614E2AE0B9424D
:1016C00027D12068484501D1012623E0A0F1066218
:1016D000121F0CD0A0F14962083A0AD0A0F186523C
:1016E000103A08D0514A904207D1564E12E0564E59
:1016F00010E0564E0EE0564E0CE04D4A904209D096
:10170000B04201D14B4E05E04A4A9042D3D1514EEE
:1017100000E00026CA6930031AD096FAA6F0B0FAA3
:1017200080F000BF00F01F03012098400243CA610F
:101730002668002E2BDA3C4B4749DFF820C100E039
:1017400025E02868984201D0B84203D10A4602E059
:10175000B00EE7E762469268984202F0E07201D06C
:10176000B84209D19C68D7F8088004F0010408F059
:10177000010844EA080403E0DAF8084004F0010430
:1017800054B1696D0120019041F02000686500208E
:1017900085F8500001982EE6314CA6421CD1140267
:1017A0001AD45045F3D1984202D0B84200D06146D5
:1017B0008B6842F4000023F0E07202438A602A49F9
:1017C00028480968B1FBF0F04000801C00E0401E92
:1017D00000900028FBD1DAE7244CA6420CD1D401BA
:1017E0000AD45045D3D1984202D0B84200D06146C5
:1017F0008B6842F080700EE01D4CA642C7D15402A7
:10180000C5D45045C3D1984202D0B84200D06146F9
:101810008B6842F4800023F0E07202438A60B6E7EE
:10182000FFFF0F000000FF47002002402000F014DF
:101830000004002A001060320000214300005247DB
:101840000000B84F0002B025400020198000501D54
:1018500000018021002090360023024000630258DE
:10186000000084CB400D03001C000024000052C780
:101870000000B8CF70477047704700002DE9F84F5F
:101880004FF0000804004646CDF800807DD0FB4DA7
:101890002068DFF8EC93FB4FA84208D0B84206D08E
:1018A000484504D0F8A040F2A71109F021F960687A
:1018B000B0F5803F2CD0B0F5003F29D0B0F5403FC7
:1018C00026D028B3B0F5802F22D0B0F5002F1FD03E
:1018D000B0F5402F1CD0B0F5801F19D0B0F5A01F77
:1018E00016D0B0F5C01F13D0B0F5E01F10D0B0F582
:1018F000001F0DD0B0F5101F0AD0B0F5201F07D083
:10190000B0F5301F04D04FF4D471DFA009F0F0F827
:10191000A06880B104280ED014280CD008280AD062
:10192000182808D00C2806D0102804D0D6A040F2E1
:10193000A91109F0DDF8E06830B1012804D0D2A087
:101940004FF4D57109F0D4F8607D30B1012804D08E
:10195000CDA040F2AB1109F0CBF8A06A4FF4806A39
:1019600060B150450AD0B0F5006F07D0B0F5406FB8
:1019700004D04FF4D671C4A009F0BAF8606A50459B
:1019800043D0B0F5846F40D000E08AE0B0F5886FB6
:101990003BD0B0F58C6F38D0B0F5906F35D0B0F546
:1019A000946F32D0B0F5986F2FD0B0F59C6F2CD0DB
:1019B000B0F5A06F29D0B0F5A46F26D0B0F5A86F10
:1019C00023D0B0F5AC6F20D0B0F5B06F1DD0B0F51E
:1019D000B46F1AD0B0F5B86F17D0B0F5BC6F14D093
:1019E000B0F5C06F11D0B0F5C46F0ED0B0F5C86FB0
:1019F0000BD0B0F5CC6F08D0B0F5D06F05D020B1CA
:101A0000A1A040F2AD1109F073F8E06A50B10228CC
:101A100008D0012806D0032804D09BA04FF4D7712A
:101A200009F066F82069042806D0082804D096A09A
:101A300040F2AF1109F05CF8206B38B1B0F5805F6F
:101A400004D04FF4D87190A009F052F8207D30B145
:101A5000012804D08CA040F2B11109F049F894F8A3
:101A6000380030B1012804D087A04FF4D97109F0B3
:101A70003FF8E06808B3A069401E0F2804D982A08F
:101A80004FF4DB7109F034F8207F08B301280BD044
:101A90007DA040F2B71109F02BF8207F012803D078
:101AA00016E00120BDE8F88F206A401E072807D9FC
:101AB00075A040F2BB1109F01BF8207F012807D167
:101AC000607D012804D14FF4E0716FA009F010F897
:101AD000606D30B9204600F073F9C4F8588084F87E
:101AE000508020688168C1F3407119B18168744ADF
:101AF0001140816020688168C1F3007181B98168FB
:101B0000704A114041F08051816070496E48096807
:101B1000B1FBF0F0401C00E0401E00900028FBD11B
:101B200020688168C1F3007141B9616D012641F0FF
:101B300010016165A16D41F00101A16506F0C2FFD0
:101B4000616DC90600D420B1606D012640F010001F
:101B500091E0606D20F4807040F0020060652068C4
:101B6000816811F0010F1DD1A84201D0B84207D100
:101B7000A968BA6801F0010102F00102114303E013
:101B8000D9F8081001F0010161B9A84201D0B842AA
:101B900001D14F4800E04F488268616822F47C120E
:101BA0000A43826002F004FA41F20301884202D93A
:101BB000A06810280CD0617D237FA268206B4903A8
:101BC00041EA034110430843217F01290CD010E072
:101BD000617D227F206B490341EA024140F0100001
:101BE000084340F00C00EFE7218C3B4A02EB4141F7
:101BF0000843616A29B1A26A01F47871014342EA9B
:101C000001002168354BCA681A400243CA60206847
:101C100006F058FF0546206806F050FF28431DD106
:101C2000216844F20303257DE26AC86842EA8532EE
:101C300098431043C86094F83800012850D02068B9
:101C4000016921F0010101612068626B016921F0E5
:101C50007041114301612046FEF706FDE06801284E
:101C600020687CD0016B21F00F010163606D20F0D2
:101C7000020040F001006065304613E7002002409A
:101C800000600258002102402E2E2F4472697665B2
:101C900072732F53544D3332483778785F48414C34
:101CA0005F4472697665722F5372632F73746D335C
:101CB00032683778785F68616C5F6164632E6300B7
:101CC000C0FFFF5FC0FFFF7F400D03001C0000242A
:101CD00000230240006302580000FEFF03C0F0FF33
:101CE000E06B401E504505D34FF43071AFF26800F1
:101CF00008F0FEFE206CF8B120281DD040281BD033
:101D0000602819D0802817D0A02815D0C02813D05B
:101D1000E02811D0B0F5807F0ED0B0F5907F0BD0C9
:101D2000B0F5A07F08D0B0F5B07F05D040F2C22159
:101D3000AFF2AC0008F0DCFE606C40B1B0F5007FA3
:101D400005D040F2C321AFF2C00008F0D1FEA06C74
:101D500001280BD0A0F58061013907D000E023E015
:101D60004FF43171AFF2E00008F0C2FE606A08B1D2
:101D7000A06A38B9606C28B140F2CA21AFF2F8000D
:101D800008F0B6FE2168A38F0B4FD4E9100C0B4D61
:101D900007EB0347A26C0B6940EA0C003A4310437F
:101DA0002B40184308614FE7A269016B521E21F0D6
:101DB0000F01114359E700000100FFFF1EF800FC6E
:101DC0002DE9F041B6B08046142130A8FEF7E8FBBB
:101DD000C0216846FEF7E4FB3649D8F80000884287
:101DE00064D100204FF400218A102992CDE900101F
:101DF000684602F0DDFE08B1FEF785FF2E48016857
:101E000041F020010160006800F0200035902A4870
:101E10000830016841F001010160016801F0010131
:101E20003591016841F004010160016801F004018D
:101E30003591016841F002010160006830A9032476
:101E400000F0020035900025302081E831001B4869
:101E500001F0A6FE30A9A02081E83100184801F069
:101E60009FFE30A9012081E83100164801F098FE5C
:101E700016480921144C0215C31420608715C4E9C3
:101E80000115C4E903524FF4403004F11401C4E9D0
:101E90000805D600204681E8C80000F02FFF08B1F1
:101EA000FEF731FFC8F84C40C4F8388036B0BDE8C2
:101EB000F081000000200240D8440258000002587F
:101EC0000008025800040258F005002410000240E7
:101ED0002DE9F0478A463F49044600683E4F914647
:101EE000884201D0B84201D13C4A00E03C4A9268A5
:101EF0008846404502F01F0509D0B84207D039494D
:101F0000884204D038A040F6460108F0F1FD206870
:101F100006F0D8FD00285BD194F85000012857D076
:101F200001204FF0000684F8500025B1052D02D0A5
:101F3000092D00D003E02046FEF760FC18B184F8BC
:101F40005060BDE8F087616D40F601622068914302
:101F5000B84241F48071616501D1414600E001461B
:101F6000814200D01DB9606D20F480106065606D05
:101F7000C00404D5A06D20F00600A06500E0A665B1
:101F80001C20E16C264ACA63E26C26491164E26CAB
:101F90002549D1642168086084F850602068416850
:101FA00041F0100141602068E16AC26822F003023A
:101FB0000A43C26021684B46E06C5246403101F052
:101FC000B5F92168194B8A681A40121D8A60B8E772
:101FD0000220B6E700200240002102400023024018
:101FE00000630258006002582E2E2F4472697665F5
:101FF00072732F53544D3332483778785F48414CD1
:102000005F4472697665722F5372632F73746D33F8
:1020100032683778785F68616C5F6164632E630053
:1020200071070008F3070008D9070008C0FFFF7F09
:102030002DE9F84F044601F0C1FF00903CB194F83F
:102040003500022806D0802161650020E4E00120EF
:10205000BDE8F88FC74DC74EC649183520683036E1
:10206000DFF81483DFF814938842DFF814A3DFF855
:1020700014B32ED0A8422CD0B0422AD0404528D04C
:10208000484526D0504524D0584522D0BD4A183264
:1020900090421ED0BC4A90421BD0BB4A183290429C
:1020A00017D0B94A3032904213D0B74A48329042E2
:1020B0000FD0B54A603290420BD0B34A783290428A
:1020C00007D0B14A9032904203D0AF4AA832904232
:1020D00009D1026822F01E0202602068426922F0E3
:1020E0008002426103E0026822F00E02026027686B
:1020F0008F4238464DD0A8424BD0B04249D04045DF
:1021000047D0484545D0504543D0584541D09D4AD9
:10211000183290423DD09C4A90423AD09A4A1832A6
:10212000904236D0984A3032904232D0964A483265
:1021300090422ED0944A603290422AD0924A78320D
:10214000904226D0904A9032904222D08E4AA832B5
:1021500090421ED08D4A90421BD08C4A143290423D
:1021600017D08A4A2832904213D0884A3C32904293
:102170000FD0864A503290420BD0844A643290424B
:1021800007D0824A7832904203D0804A8C329742FC
:1021900004D1206E026822F48072026075492068C2
:1021A000884228D0A84226D0B04224D0404522D030
:1021B000484520D050451ED058451CD07149183193
:1021C000884218D07049884215D06F49183188422A
:1021D00011D06D49303188420DD06B494831884269
:1021E00009D069496031884205D067497831884211
:1021F00001D065499031016821F0010101600EE0D4
:1022000001F0DCFE0099401A052808D920226265F9
:102210000321002084F8351084F8340017E738686B
:10222000C007EDD1534A0121206890422ED0A84228
:102230002CD0B0422AD0404528D0484526D0504521
:1022400024D0584522D04F4B183398421ED04E4BC5
:1022500098421BD04C4B1833984217D04A4B30331E
:10226000984213D0484B483398420FD0464B6033C6
:1022700098420BD0444B7833984207D0424B90336E
:10228000984203D0404BA833984208D194F85C7030
:102290003F23A06D07F01F07BB40836007E094F861
:1022A0005C30A06D03F01F0301FA03F34360206864
:1022B00090424DD0A8424BD0B04249D0404547D083
:1022C000484545D0504543D0584541D02D4A183255
:1022D00090423DD02C4A90423AD02B4A183290423C
:1022E00036D0294A3032904232D0274A4832904282
:1022F0002ED0254A603290422AD0234A783290422A
:1023000026D0214A9032904222D01F4AA8329042D1
:102310001ED01E4A90421BD01C4A1432904217D045
:102320001A4A2832904213D0184A3C3290420FD0B9
:10233000164A503290420BD0144A6432904207D071
:10234000124A7832904203D0104A8C3290420BD11C
:10235000D4E919024260E06E30B1026822F4807262
:102360000260D4E91C024260002084F8351084F831
:1023700034006DE610000240580002407000024038
:1023800088000240A0000240100402400854025895
:102390002DE9F05F28B190F83510022904D0802192
:1023A00041650120BDE8F09F904C904B0168183CBE
:1023B00018338E4ADFF83C92A1428D4CDFF838E2A8
:1023C0008E4FDFF83CB2DFF83CA28F4D8F4E31D0FC
:1023D00091422FD099422DD0A1422BD0494529D0EE
:1023E000714527D0B94225D0DFF810C20CF1180C86
:1023F00061451FD0DFF808C2ACF1600C614519D00F
:10240000DFF8FCC1ACF1480C614513D0DFF8F0C136
:10241000ACF1300C61450DD0DFF8E4C1ACF1180C23
:10242000614507D0594505D0514503D0A94201D097
:10243000B1422CD1DFF8B4C14FF0040880F83580E8
:10244000ACF1180C61451DD091421BD0994219D0B6
:10245000A14217D0494515D0714513D0B94211D0CA
:102460006648183081420DD065486038814209D0F5
:1024700063484838814205D061483038814201D0F4
:102480005F481838086820F001000860ABE0D1F818
:1024900000C02CF00E08DFF854C1C1F80080ACF188
:1024A000180C0168614527D0914225D0994223D06C
:1024B000A14221D049451FD071451DD0B9421BD042
:1024C000DFF838C10CF1180C614515D0DFF830C1C8
:1024D000ACF1600C61450FD0DFF824C1ACF1480CC1
:1024E000614509D0DFF818C1ACF1300C614503D06B
:1024F000DFF80CC1ACF1180CD1F800C02CF0010CC5
:10250000C1F800C0DFF8E4804FF0010C0168A8F1C9
:102510001808414546D0914244D0994242D0A14248
:1025200040D049453ED071453CD0B9423AD0334ABB
:102530001832914236D0324A603A914232D0304A13
:10254000483A91422ED02E4A303A91422AD02C4A13
:10255000183A914226D0594524D0514522D0A9425B
:1025600020D0B1421ED02A4A91421BD0284A1432B0
:10257000914217D0264A2832914213D0244A3C3245
:1025800091420FD0224A503291420BD0204A6432FD
:10259000914207D01E4A7832914203D01C4A8C32B5
:1025A000914218D1016E0A6822F480720A6090F894
:1025B0005C20816D02F01F020CFA02F24A60D0E941
:1025C00019124A60C16E31B10A6822F480720A6041
:1025D000D0E91C124A600022016D80F835C080F8F5
:1025E000342001B188470020DCE6000028000240CA
:1025F000580002407000024088000240A0000240E3
:102600007004024088040240A0040240B804024062
:10261000085402582DE9FC5F0446F74E0020DFF80D
:10262000D88300904FF41652F44808F11808A56DAD
:10263000DFF8C493DFF8C0A3016809F1300920680E
:102640000AF1480AB1FBF2F1B04201912F68D5F8C6
:1026500000C0DFF8ACB335D04146884232D048459F
:1026600030D050452ED058452CD0E54918318842FD
:1026700028D0E3493031884224D0E14948318842AA
:1026800020D0E04988421DD0DE491831884219D057
:10269000DC493031884215D0DA494831884211D0BE
:1026A000DFF860E30EF1600E70450BD0D54A78324A
:1026B000904207D0D34B9033984203D0D149A831F0
:1026C00088427DD194F85C20082102F01F0201FAB3
:1026D00002F23A424AD0B04232D0404530D048456A
:1026E0002ED050452CD058452AD0C54A1832904299
:1026F00026D0C34A3032904222D0C14A483290425A
:102700001ED0C04A90421BD0BE4A1832904217D009
:10271000BC4A3032904213D0BA4A483290420FD06D
:10272000B84A603290420BD0B64A7832904207D015
:10273000B44A9032904203D0B24AA832904203D1B8
:10274000026802F0040202E0026802F008026AB1C4
:10275000026822F00402026094F85C0000F01F009E
:102760008140A960606D40F00100606594F85C00F4
:10277000012100F01F008140394240D02068B04262
:1027800034D0404532D0484530D050452ED0584501
:102790002CD09B4A1832904228D0994A303290422D
:1027A00024D0974A4832904220D0964A90421DD079
:1027B000944A1832904219D0924A3032904200E046
:1027C000AFE113D08F4A483290420FD08D4A603229
:1027D00090420BD08B4A7832904207D0894A90328F
:1027E000904203D0874AA83290427DD1406910F0D0
:1027F000800F04D0A960606D40F00200606594F81D
:102800005C00042100F01F00814039423ED0206866
:10281000B04232D0404530D048452ED050452CD023
:1028200058452AD0764A1832904226D0744A30321F
:10283000904222D0724A483290421ED0714A904251
:102840001BD0704A1832904217D06E4A30329042F4
:1028500013D06C4A483290420FD06A4A603290429C
:102860000BD0684A7832904207D0664A9032904244
:1028700003D0644AA83290424ED1006810F0020F93
:1028800004D0A960606D40F00400606594F85C00BD
:10289000102100F01F008140394258D02068B0421A
:1028A00034D0404532D0484530D050452ED05845E0
:1028B0002CD0534A1832904228D0514A303290429C
:1028C00024D04F4A4832904220D04E4A90421DD0E8
:1028D0004C4A1832904219D04A4A3032904215D0B0
:1028E000484A4832904200E014E00FD0454A603236
:1028F00090420BD0434A7832904207D0414A9032FE
:10290000904203D03F4AA832904207D1006800F0BD
:10291000080006E0006872E70068B7E7006800F0AA
:102920000400A0B1A96020680168490304D50068CB
:10293000000308D5A16C07E00168C90503D401684C
:1029400021F008010160216C09B12046884794F804
:102950005C00202100F01F008140394279D02068BE
:10296000B04232D0404530D048452ED050452CD0D2
:1029700058452AD0224A1832904226D0204A303276
:10298000904222D01E4A483290421ED01D4A9042A8
:102990001BD01C4A1832904217D01A4A303290424B
:1029A00013D0184A483290420FD0164A60329042F3
:1029B0000BD0144A7832904207D0124A903290429B
:1029C00003D0104AA832904203D1006800F01000F2
:1029D00002E0006800F00200B0B3A96094F835008E
:1029E0000428206801680FD049037ED500680003E1
:1029F0002BD4616C2AE00000100002401C0000246F
:102A0000700002401004024021F0160101602068AD
:102A1000416921F080014161206C08B9A06C20B1AE
:102A20002068016821F00801016094F85C303F21C2
:102A3000012003F01F0300229940A96084F83500AB
:102A400084F83420216D65E003E0E16B09B1204694
:102A50008847606D00287DD0606DC00759D0206820
:102A6000042184F83510B0422BD0404529D0484588
:102A700027D0504525D0584523D09D49884220D0A5
:102A80009B49183188421CD099493031884218D06E
:102A90009849884215D097491831884211D09549F4
:102AA000303188420DD093494831884209D091494C
:102AB0006031884205D08F497831884201D08D49F4
:102AC0009031016821F00101016020680099019AAC
:102AD000491C0091914202D80168C907F6D10068EB
:102AE000C00710D003200FE0FFE70168C905ACD490
:102AF00003680121002223F01003036084F83510DD
:102B000084F83420A1E7012084F83500002084F8FF
:102B10003400E16C00291DD002B02046BDE8F05F12
:102B20000847754988421DD073491431884219D02D
:102B300071492831884215D06F493C31884211D003
:102B40006D49503188420DD06B496431884209D0BB
:102B5000694900E084E07831884203D066498C31CD
:102B600088427DD194F85C800427016808F01F0832
:102B700007FA08F717EA0C0F009746D04F0744D51D
:102B800000980F04686003D5C8033CD4A16CC1E76A
:102B9000880638D42068B0422DD055496039884223
:102BA00029D0484527D0504525D0584523D05049F5
:102BB000884220D04E49183188421CD04C493031CF
:102BC000884218D04B49884215D04A49183188426A
:102BD00011D04849303188420DD0464948318842A9
:102BE00009D0704507D0904205D0984203D04149A2
:102BF000A831884203D1016821F0080102E0016890
:102C000021F004010160216C84E7022707FA08F72C
:102C100017EA0C0F00974ED08F074CD500980F0481
:102C2000686003D5C80344D4616C73E7880640D458
:102C30002068B0422FD02E49603988422BD04845B9
:102C400029D0504527D0584525D02949884222D03F
:102C50002749183188421ED025493031884200E08A
:102C600044E018D02349884215D0224918318842BF
:102C700011D02049303188420DD01E494831884258
:102C800009D0704507D0904205D0984203D0194929
:102C9000A831884203D1016821F0140102E00168E3
:102CA00021F00A010160012184F83510002084F828
:102CB0003400E16B2EE7082202FA08F212EA0C0F48
:102CC00014D0090712D5016821F00E01016094F8B3
:102CD0005C100120002201F01F0100FA01F169607F
:102CE000606584F8350084F8342012E7BDE8FC9F65
:102CF0008800024010040240085402582DE9F05F99
:102D0000044601F05BF9002C80467DD0FE4EFE4D5E
:102D1000DFF8F49318362068DFF8F0A309F13009E2
:102D2000DFF8ECB3A84255D0B04253D0484551D05B
:102D300050454FD058454DD0F5491831884249D0BB
:102D4000F3493031884245D0F1494831884241D079
:102D5000F04988423ED0EF49183188423AD0ED49D7
:102D60003031884236D0EB494831884232D0E94987
:102D7000603188422ED0E749783188422AD0E5492F
:102D80009031884226D0E349A831884222D0E249D6
:102D900088421FD0E049143188421BD0DE492831D7
:102DA000884217D0DC493C31884213D0DA4950318F
:102DB00088420FD0D849643188420BD0D649783147
:102DC000884207D0D4498C31884203D0E621D3A071
:102DD00007F08EFEA06838B1402805D0802803D0C7
:102DE000E721CEA007F084FEE068B0F5007F04D0B4
:102DF00018B1E821C9A007F07BFE2069B0F5806F0B
:102E000006D028B1E92100E065E2C4A007F070FE19
:102E1000606948B1B0F5006F06D0B0F5805F03D0AF
:102E2000EA21BEA007F064FEA06948B1B0F5005FDA
:102E300006D0B0F5804F03D0EB21B8A007F058FEC4
:102E4000E06970B1B0F5807F0BD0202809D0B0F5D3
:102E5000802F06D0B0F5402F03D0EC21AFA007F0B3
:102E600047FE206A60B1B0F5803F09D0B0F5003F61
:102E700006D0B0F5403F03D0ED21A8A007F038FE02
:102E8000A149022720684FF00005884232D0B042A5
:102E900030D048452ED050452CD058452AD09C499A
:102EA0001831884226D09A493031884222D0984938
:102EB000483188421ED0974988421BD09549183125
:102EC000884217D093493031884213D09149483114
:102ED00088420FD08F49603188420BD08D497831BC
:102EE000884207D08B499031884203D08949A83164
:102EF000884275D16068732803D9F12187A007F053
:102F0000F7FD606A002831D0042805D0F22183A0A3
:102F100007F0EEFD606A48B3A06A48B1012807D007
:102F2000022805D0032803D0F7217CA007F0E0FD9C
:102F3000E06A60B1B0F5000F09D0B0F1807F06D033
:102F4000B0F1C07F03D0F82174A007F0D1FD206B51
:102F500060B1B0F5001F09D0B0F5800F06D0B0F514
:102F6000C00F03D0F9216DA007F0C2FD66492068AB
:102F700084F83570884284F834502CD0B0422AD07E
:102F8000484528D0504526D0584524D060491831AE
:102F9000884220D05E49303188421CD05C4948319B
:102FA000884218D05B49884215D05A491831884266
:102FB00011D05849303188420DD0564948318842A5
:102FC00009D054496031884205D05249783188424D
:102FD00001D050499031016821F00101016009E000
:102FE00066E000BF00F0EAFFA0EB0800052801D969
:102FF00020216CE120680068C007F3D104F10800CB
:103000002168D4E9053C8E4685C809681043D4E997
:1030100007281F43636A38434E4F40EA0C001043B1
:10302000394040EA0800042B40EA010003D1D4E90A
:103030000B1211430843484909686FF30F01B1F1BE
:10304000005F0FD36168A1F12902052A08D9163A59
:10305000032A05D9083A012A02D94F39032901D890
:1030600040F48010CEF800002068676A4069042FA1
:1030700020F0070047EA00070DD1D4E90A01074311
:1030800049B12046FDF704FD28B1402060650121CB
:1030900084F835101FE1206847612046FDF716FCD3
:1030A00094F85C203F2102F01F0291408160A8E06B
:1030B000194988421BD0184A1432904217D0164A38
:1030C0002832904213D0144A3C3290420FD0124A18
:1030D000503290420BD0104A6432904207D00E4AD0
:1030E0007832904203D00C4A8C3290427ED1884292
:1030F00045D009491431884241D0074928318842D6
:103100003DD005493C3129E0100002405800024002
:103110007000024010040240085402582E2E2F4422
:103120007269766572732F53544D3332483778780D
:103130005F48414C5F4472697665722F5372632F0A
:1031400073746D3332683778785F68616C5F646D73
:10315000612E63003F8010FE0010005C88420ED09C
:103160006D4988420BD06C491431884207D06A49B6
:103170002831884203D068493C31884208D16068D0
:10318000112805D940F26B11AFF2700007F0B0FCC6
:1031900084F8357084F834502068A1688646006849
:1031A00040295E4A00EA02007ED080297DD00021BD
:1031B000D4E903C2D4E9053741EADC0848EAD20879
:1031C000574AD4E9071C48EAD30848EAD70747EA30
:1031D000D101142341EA1C110143CEF800102068EC
:1031E0001044B0FBF3F08000E06500E06EE02046A4
:1031F000FDF76CFB94F85C20012102F01F02914066
:10320000416048492068884254D0B04252D0484575
:1032100050D050454ED058454CD042497831884224
:1032200048D040499031884244D03E49A831884234
:1032300040D03D4988423DD03B491831884239D081
:1032400039493031884235D037494831884231D008
:103250003549603188422DD033497831884229D0B0
:1032600031499031884225D02F49A831884221D058
:103270002949503988421DD027493C39884219D004
:1032800025492839884215D023491439884211D05C
:10329000214988420ED02049143188420AD01E4963
:1032A0002831884206D001E00BE00CE01A493C319D
:1032B00088422AD12046FDF763FBA06880280DD004
:1032C0000DE0102174E74FF4804171E74021616502
:1032D000032084F835000120BDE8F09F6560216E71
:1032E00020790860D4E9190141606068401E072810
:1032F00008D82046FDF792FBE06E0560D4E91C017A
:10330000416002E0E566256765670120656584F830
:1033100035000020E0E70000585402580F00FEFF7F
:10332000F8ABFDA710000240100402402DE9FF4F4A
:1033300081B0044600214FF6FF7204980091401EB0
:10334000904204D39DA040F2AE2107F0D1FBACB176
:1033500094F83400012813D094F83520012000217E
:1033600084F83400012A0DD0C0026065012000906D
:1033700084F83410009805B0BDE8F08F0120FAE71A
:103380000220F8E79B4A0223206884F835309042F7
:10339000994D6165994E9A4FDFF86882DFF868921F
:1033A000DFF868A2DFF868B226D0A84224D0B04285
:1033B00022D0B84220D040451ED048451CD05045B0
:1033C0001AD0584518D09349884215D091491831E0
:1033D000884211D08F49303188420DD08D49483113
:1033E000884209D08B496031884205D089497831BB
:1033F000884201D087499031016821F001010160C4
:103400000DF1080C20469CE80E00FDF76BFB794996
:10341000206888422CD0A8422AD0B04228D0B84296
:1034200026D0404524D0484522D0504520D058458C
:103430001ED0784A90421BD0764A1832904217D05C
:10344000744A3032904213D0724A483290420FD0C0
:10345000704A603290420BD06E4A7832904207D068
:103460006C4A9032904203D06A4AA83290420CD102
:10347000026822F01E0242F016020260206C88B13F
:103480002068026842F008020BE0026822F00E0297
:1034900042F00A020260206C20B12068026842F00B
:1034A00004020260206888424BD0A84249D0B04252
:1034B00047D0B84245D0404543D0484541D050451B
:1034C0003FD058453DD0534A90423AD0514A1832E5
:1034D000904236D04F4A3032904232D04D4A483234
:1034E00090422ED04B4A603290422AD0494A7832DC
:1034F000904226D0474A9032904222D0454AA83284
:1035000090421ED0444A90421BD0434A143290420B
:1035100017D0414A2832904213D03F4A3C32904261
:103520000FD03D4A503290420BD03B4A6432904219
:1035300007D0394A7832904203D0374A8C329042D1
:103540000DD1206E0268D20303D5026842F4807266
:103550000260E06E18B1026842F480720260206876
:10356000884226D0A84224D0B04222D0B84220D0EF
:1035700040451ED048451CD050451AD0584518D05B
:103580002449884215D023491831884211D0214955
:10359000303188420DD01F494831884209D01D4939
:1035A0006031884205D01B497831884201D01949E1
:1035B0009031016841F001010160DBE62E2E2F44BD
:1035C0007269766572732F53544D33324837787869
:1035D0005F48414C5F4472697665722F5372632F66
:1035E00073746D3332683778785F68616C5F646DCF
:1035F000612E63001000024028000240400002409B
:10360000580002407000024088000240A0000240C2
:10361000B800024010040240085402582DE9F0435B
:1036200093B0FF494C2204466846FCF765FF002C26
:103630007ED0FC492068884203D100BF00F580722B
:103640006260894607D0F849884204D0F7A040F26A
:10365000371107F04DFAA0684FF4407548B1B0F546
:10366000807F06D0A84204D04FF49C71EFA007F0F1
:103670003FFAE06860B101280AD0022808D0032888
:1036800006D0042804D0E9A040F2391107F030FA3E
:10369000207C30B1012804D0E4A04FF49D7107F0E4
:1036A00027FA607C30B1012804D0E0A040F23B1141
:1036B00007F01EFAA07C30B1012804D04FF49E71AF
:1036C000DAA007F015FA6069401EB0F5007F04D358
:1036D000D6A040F23D1107F00BFAA069401E7F28EA
:1036E00004D9D2A04FF49F7107F002FAE069401E9E
:1036F000FF2804D9CDA040F23F1107F0F9F9206A64
:10370000401E7F2804D94FF4A071C8A007F0F0F93B
:10371000A068A846404525D1606A401E1F2804D9EC
:10372000C2A040F2431107F0E3F9A06A401E00E096
:10373000C5E00F2804D94FF4A271BCA007F0D8F956
:10374000E06A401E1F2804D9B8A040F2451107F0D6
:10375000CFF9206B401E0F2804D9B4A04FF4A371F9
:1037600007F0C6F9A06B802804D94FF4A471AFA06C
:1037700007F0BEF9E06B402804D9ACA040F2491133
:1037800007F0B6F9206C402804D9A8A04FF4A57121
:1037900007F0AEF9206CA8B1606C042812D005289F
:1037A00010D006280ED007280CD008280AD00A28E6
:1037B00008D00E2806D0122804D09CA040F24D114B
:1037C00007F096F9A06C402804D998A040F24F1158
:1037D00007F08EF9A06CA8B1E06C042812D005287F
:1037E00010D006280ED007280CD008280AD00A28A6
:1037F00008D00E2806D0122804D08CA04FF4A9714E
:1038000007F076F9206D402804D94FF4AA7187A0FB
:1038100007F06EF9206DA8B1606D042812D005285C
:1038200010D006280ED007280CD008280AD00A2865
:1038300008D00E2806D0122804D07CA040F25711E0
:1038400007F056F9A06D202804D978A040F259114C
:1038500007F04EF9D4E917010844202804D973A0D1
:103860004FF4AD7107F044F9206E48B1606E38B185
:10387000B0F1804F04D06DA040F25D1107F038F92F
:10388000D4E91701C84215D0A06E042812D005282B
:1038900010D006280ED007280CD008280AD00A28F5
:1038A00008D00E2806D0122804D060A040F2611182
:1038B00007F01EF994F89800002520B108E00120D7
:1038C00013B0BDE8F083204684F8995000F024F945
:1038D0002068816921F01001816100F06FFB0327EE
:1038E000064604E000F06AFB801B0A2811D8206815
:1038F00080690007F6D42068816941F00101816187
:1039000000F05CFB06460DE000F058FB801B0A2827
:1039100008D9D4F89C0040F00100C4F89C0084F859
:103920009870CCE720688069C007EDD02068816975
:1039300041F002018161207C01282068816937D033
:1039400041F040018161607C01282068816932D0AA
:1039500021F480418161A07C0128206881692DD0FB
:1039600041F4805181612068A268816921F440712D
:10397000114381612068816921F0A401816120687F
:10398000016921F010010161E068012819D010B32C
:1039900002281BD02068816941F080018161206884
:1039A000016941F010010161E06803280ED012E0C6
:1039B00021F04001C6E741F48041CBE721F480517A
:1039C000D0E72068816941F0040103E02068816943
:1039D00041F020018161207E6FF0FF01D4E907737F
:1039E000A68A0A02400601EB0727A0F100703843BF
:1039F00027685B1E184302EB06463043F861A06857
:103A0000404537D104F12800A68C6FF00F0C89C80F
:103A1000401E01EB032108430CEB071324E00000D8
:103A200090B1000800A0004000A400402E2E2F44BA
:103A30007269766572732F53544D333248377878F4
:103A40005F48414C5F4472697665722F5372632FF1
:103A500073746D3332683778785F68616C5F666461
:103A600063616E2E6300000002EB0641226818437A
:103A70000843D060206E30B12068626ED0F8C0106C
:103A80001143C0F8C010D4E917126846D14209D0DA
:103A90002168A36E51F8C82F50F8233022F0070296
:103AA0001A430A60216C49B12168636C51F8BC2F3C
:103AB00050F8233022F007021A430A60A16C51B17A
:103AC0002168E26C51F8BC3F50F8222023F07003CB
:103AD00043EA02120A60216D51B12168636D51F809
:103AE000BC2F50F8230022F4E06242EA0020086074
:103AF0002168494504D16068816821F00301816033
:103B0000C4F894500120C4F89C5084F898002046D2
:103B1000FDF70AF9D4E6000010B5B6B0044614214A
:103B200030A8FCF73DFDC0216846FCF739FD194976
:103B3000206888422CD100201C904FF4004104469C
:103B4000CDE90010684601F033F808B1FDF7DBF865
:103B50001148016841F480710160006800F48070D0
:103B600035900D480C38016841F001010160006892
:103B700030AB022100F0010035904FF4C050092213
:103B800083E81300054830A9CDE9334200F008F876
:103B900036B010BD00A00040EC44025800000258AE
:103BA0002DE9F84FDFF8CC920026DFF8CC820D46E5
:103BB000DFF8C8A24845044620D054451ED0B0487E
:103BC00084421BD0AF48844218D0AF48844215D0FD
:103BD000AE48844212D0AE4884420FD0AD488442F1
:103BE0000CD0AD48844209D0AC48844206D0AC48E1
:103BF000844203D0B321ABA006F07AFF2868010409
:103C0000090C01D0000C03D0B421A6A006F070FF6F
:103C100068684FF0030B00281FD00128FCD0112842
:103C2000FAD00228F8D01228F6D0B0F5881FF3D0C9
:103C3000B0F5041FF0D0B0F5441FEDD0B0F5901FE3
:103C4000EAD0B0F5081FE7D0B0F5481FE4D003284C
:103C5000E2D0B52193A006F04BFF03E10120B04074
:103C600011EA000700907DD0287900F003000128B8
:103C700001D002281DD1E86848B1012807D00228E8
:103C800005D0032803D0C42186A006F031FFA16827
:103C90007200E8680BFA02F3994390400843A06071
:103CA00060682979009AC1F300119043B140014343
:103CB00061602879C043800712D0A86838B1012814
:103CC00005D0022803D0D62176A006F011FFE068C7
:103CD0007200A9680BFA02F3984391400143E16036
:103CE000287900F0030002283AD14C4520D05445F1
:103CF0001ED0634884421BD06248844218D0624878
:103D0000844215D06148844212D0614884420FD069
:103D1000604884420CD06048844209D05F488442A5
:103D200006D05F48844203D0E3215EA006F0E0FEA7
:103D300028690F2803D9E4215AA006F0D9FEF0081B
:103D400029690F2304EB80024FEA467C106A4FEA90
:103D5000DC6C03FA0CF3984301FA0CF10143116295
:103D6000297900E07DE02068720001F003010BFA80
:103D700002F39140984301432160686810F4403F8A
:103D80006FD05748016841F002010160006826F0D9
:103D9000030202F1B04200F002000090B007D2F836
:103DA00008140F23000F83404C4521EA030101D181
:103DB00000232CE0544501D1012328E0304B9C42E4
:103DC00001D1022323E02F4B9C4201D103231EE0AB
:103DD0002D4B9C4201D1042319E02C4B9C4201D174
:103DE000052314E02A4B9C4201D106230FE0294B06
:103DF0009C4201D107230AE0274B9C4201D10823B2
:103E000005E0264B9C4201D1092300E00A238340B0
:103E10000B43C2F808344FF0B0406A680168D20220
:103E200021EA070100D5394301606A6841689202BE
:103E300021EA070100D539434160D8F804006968D8
:103E400020EA0700890300D53843C8F80400D8F8F1
:103E50000000696820EA0700C90300D53843C8F8A4
:103E60000000761C2F683946F7407FF4F7AEBDE8B6
:103E7000F88F00000000025880000058000402582B
:103E800000080258000C0258001002580014025892
:103E900000180258001C0258002002580024025842
:103EA000002802582E2E2F447269766572732F53A4
:103EB000544D3332483778785F48414C5F447269DB
:103EC0007665722F5372632F73746D33326837784F
:103ED000785F68616C5F6770696F2E630000000037
:103EE000F444025870B50C00054604D106A04FF406
:103EF000E17106F0FDFD696924EA0100214040EA14
:103F00000140A86170BD00002E2E2F4472697665B5
:103F100072732F53544D3332483778785F48414C91
:103F20005F4472697665722F5372632F73746D33B9
:103F300032683778785F68616C5F6770696F2E638D
:103F40000000000070B50C001546064604D109A01B
:103F50004FF4D57106F0CCFD45B1012D04D005A07C
:103F600040F2AB1106F0C4FDB46170BD2004B06135
:103F700070BD00002E2E2F447269766572732F5328
:103F8000544D3332483778785F48414C5F4472690A
:103F90007665722F5372632F73746D33326837787E
:103FA000785F68616C5F6770696F2E630000000066
:103FB00001480068000C70470010005C01488068F0
:103FC0007047000010000024024881680278114404
:103FD0008160704710000024032010B500F0F8F94C
:103FE00001F020FF0F4A104914681368C4F303223C
:103FF00003F00F038A5CC95C02F01F0201F01F018D
:10400000D0400A4A20FA01F11160094908600F20E6
:1040100000F010F808B1012010BD00F04BF90020AD
:1040200010BD00001844025804B20008200000240B
:104030001C00002470B50D4D04462878A0B14FF443
:104040007A71B1FBF0F00A490968B1FBF0F002F0B7
:104050006BFD48B9102C07D200222146501E00F0FB
:1040600069F900206C6070BD012070BD1000002453
:104070001C0000242DE9F0410446407810B30128CB
:1040800020D002281ED003281CD004281AD00528CE
:1040900018D0062816D0072814D0082812D00928CE
:1040A00010D00A280ED00B280CD00C280AD00D28CE
:1040B00008D00E2806D00F2804D05EA040F24D1183
:1040C00006F016FD2078012805D020B159A04FF444
:1040D000A77106F00DFD207B30B1012804D055A05A
:1040E00040F24F1106F004FDE07A70B101280CD0C7
:1040F00002280AD0032808D0052806D0062804D0B4
:104100004FF4A8714BA006F0F3FCA07A40B101284F
:1041100006D0022804D047A040F2511106F0E8FC76
:10412000607B012805D020B142A04FF4A97106F0B0
:10413000DFFCA07B012805D020B13EA040F2531146
:1041400006F0D6FCE07B012805D020B14FF4AA711F
:1041500038A006F0CDFC607AFF2804D335A040F2E9
:10416000551106F0C5FC217A04293AD0052938D02A
:10417000062936D0072934D0082932D0092930D071
:104180000A292ED00B292CD00C292AD00D2928D071
:104190000E2926D00F2924D0102922D0112920D071
:1041A00012291ED013291CD014291AD0152918D071
:1041B000162916D0172914D0182912D0192910D071
:1041C0001A290ED01B290CD01C290AD01D2908D071
:1041D0001E2906D01F2904D016A04FF4AB7106F09B
:1041E00087FC234A6178083A214811600268011F60
:1041F00022F00102026062680A60257BE67AA17AF9
:10420000627B2D07A37B45EA0665E77B45EAC14152
:1042100094F809C041EA8241267A41EA434141EAE1
:104220000741247841EA0C2141EA4601214301601B
:10423000BDE8F0812E2E2F447269766572732F537C
:10424000544D3332483778785F48414C5F44726947
:104250007665722F5372632F73746D3332683778BB
:10426000785F68616C5F636F727465782E630000BD
:10427000A0ED00E0BFF35F8F044800210368034A0C
:1042800023F48033036070321160704724ED00E046
:10429000074A40F00100064970321060086840F497
:1042A00080300860BFF34F8FBFF36F8F70470000FF
:1042B00024ED00E0054808B5016841F00201016005
:1042C000006800F00200009008BD0000F4440258AD
:1042D00010B5040003D5BD2107A006F009FC002C91
:1042E00009DB60090121800004F01F0200F1E020D9
:1042F0009140C0F8001110BD2E2E2F4472697665D2
:1043000072732F53544D3332483778785F48414C9D
:104310005F4472697665722F5372632F73746D33C5
:1043200032683778785F68616C5F636F7274657844
:104330002E63000070B5102A14460D46064603D3BE
:10434000A92113A006F0D4FB102D03D3AA2110A09D
:1043500006F0CEFB1D480068C0F30223C3F107023C
:10436000042A00D90422181D072801D2002300E0E6
:10437000DB1E012101FA02F09940401E2840491E2F
:104380009840214001433046BDE8704006F09FBB95
:104390002E2E2F447269766572732F53544D33322B
:1043A000483778785F48414C5F4472697665722F70
:1043B0005372632F73746D3332683778785F686136
:1043C0006C5F636F727465782E6300000CED00E023
:1043D00070B5072804460BD0062C09D0052C07D051
:1043E000042C05D0032C03D0912108A006F080FBFB
:1043F000154904F007024FF6FF050868134B2840E3
:1044000040EA02201843086070BD00002E2E2F44A1
:104410007269766572732F53544D3332483778780A
:104420005F48414C5F4472697665722F5372632F07
:1044300073746D3332683778785F68616C5F636F6F
:10444000727465782E6300000CED00E00000FA0540
:1044500070B50228044606D0012C04D015A04FF4F4
:10446000A17106F045FB22480168C943490705D5FB
:10447000006800F00700A04213D118E0016821F0A5
:10448000070121430160FFF799FD194D4FF47A763A
:104490000446083D07E000BFFFF790FD001BB04257
:1044A00001D9012070BD2868C0438004F4D40020E5
:1044B00070BD00002E2E2F447269766572732F53E3
:1044C000544D3332483778785F48414C5F447269C5
:1044D0007665722F5372632F73746D333268377839
:1044E000785F68616C5F7077725F65782E6300003B
:1044F0000C48025810B501F04FFC05490968054AFF
:10450000C1F30211515C01F01F01C84010BD000051
:104510002044025804B200084A4930B5494C0B1DEA
:104520000A680C3409681D68246802F0030305F06A
:104530000102C1F30511C4F3CC04002914FB02F2FB
:1045400000EE102AF8EE400A76D0414A9FED3E1A5E
:10455000DFED3E1AB7EE000A23B1012B5AD0022B31
:1045600018D15CE0374C283C23689B0612D5394BA8
:10457000246801EE901A1168C4F3C104F8EE612AB0
:10458000E34001EE903AC1F30801F8EE611A81EEC2
:10459000A22A07E002EE101A1168F8EE422A81EE14
:1045A000A22A45E001EE901A1168F8EE611A40EE79
:1045B000811A71EE800A62EE200AC1F3462101EEF3
:1045C000101AB8EE411A31EE001AC0EE811ABCEE94
:1045D000E11A80ED001A1168C1F3064101EE101ACC
:1045E000B8EE411A31EE001AC0EE811ABCEEE11AA3
:1045F00080ED011A1168C1F3066101EE101AB8EEE0
:10460000411A31EE000A80EE801ABCEEC10A80ED3C
:10461000020A30BD01EE901ADFED0F2A03E001EE31
:10462000901ADFED0E2A1168F8EE611A82EEA12AC7
:10463000C1F30801B6E7FFE7002101604160816036
:1046400030BD000028440258000000390024744C9A
:10465000304402580090D0030024744A0024F44AE5
:10466000494930B5484C0B1D0A68143409681D6867
:10467000246802F00303C5F30012C1F30531C4F34B
:10468000CC04002914FB02F200EE102AF8EE400AD6
:1046900075D03F4A9FED3D1AB7EE000A6BB1DFEDD2
:1046A0003D1A012B01D0022B64D002EE101A1168C2
:1046B000F8EE422A81EEA22A21E0334C283C2368FE
:1046C0009B0612D5344B246801EE901A1168C4F38E
:1046D000C104F8EE612AE34001EE903AC1F308010B
:1046E000F8EE611A81EEA22A0BE001EE901ADFEDDE
:1046F0002B2A00BFF8EE611A116882EEA12AC1F3DD
:10470000080101EE901A1168F8EE611A40EE811A64
:1047100071EE800A62EE200AC1F3462101EE101A02
:10472000B8EE411A31EE001AC0EE811ABCEEE11A61
:1047300080ED001A1168C1F3064101EE101AB8EEBF
:10474000411A31EE001AC0EE811ABCEEE11A80ED7A
:10475000011A1168C1F3066101EE101AB8EE411A90
:1047600031EE000A80EE801ABCEEC10A80ED020A2A
:1047700030BD04E001EE901ADFED092ABAE700210E
:10478000016041608160F3E728440258000000396D
:10479000384402580024744A0090D0030024744C1A
:1047A0000024F44A494930B5484C0B1D0A681C34B2
:1047B00009681D68246802F00303C5F30022C1F3F1
:1047C0000551C4F3CC04002914FB02F200EE102AB8
:1047D000F8EE400A75D03F4A9FED3D1AB7EE000A49
:1047E0006BB1DFED3D1A012B01D0022B64D002EE3C
:1047F000101A1168F8EE422A81EEA22A21E0334C09
:10480000283C23689B0612D5344B246801EE901A8D
:104810001168C4F3C104F8EE612AE34001EE903A56
:10482000C1F30801F8EE611A81EEA22A0BE001EE55
:10483000901ADFED2B2A00BFF8EE611A116882EEA4
:10484000A12AC1F3080101EE901A1168F8EE611A6D
:1048500040EE811A71EE800A62EE200AC1F3462111
:1048600001EE101AB8EE411A31EE001AC0EE811AAC
:10487000BCEEE11A80ED001A1168C1F3064101EEA9
:10488000101AB8EE411A31EE001AC0EE811ABCEED1
:10489000E11A80ED011A1168C1F3066101EE101AE8
:1048A000B8EE411A31EE000A80EE801ABCEEC10A61
:1048B00080ED020A30BD04E001EE901ADFED092A16
:1048C000BAE70021016041608160F3E728440258A3
:1048D00000000039404402580024744A0090D0037C
:1048E0000024744C0024F44A2DE9F04FAD4A0546EB
:1048F000DFF8ACA280F48070DFF8AC9289B01311BD
:10490000AA4C0843AAF104064FF0805C4FF000580F
:104910004FEAE2002CD085F400770F4357D0DFF840
:1049200080B285F480670F430BF1080B61D085F4EA
:1049300000670F4374D085F480570F436ED085F421
:1049400000570F434FF480394FF4003E67D085F491
:1049500000270F4371D085F480370F436ED085F464
:1049600080460E436BD085F400420A4368D02AE0AB
:10497000DAF8001001F00701052924D2DFE801F080
:1049800075BC7D25B10006A8FFF7C6FD079809B0E4
:10499000BDE8F08F6846FFF763FE0098F7E703A8CD
:1049A000FFF700FF0398F2E72068C0F3C10022FA86
:1049B00000F0ECE72268D20571D561456FD1184649
:1049C000E5E74145E3D00020E1E74846DFE7DAF8D4
:1049D000001001F4E07180294FD004DC002944D09C
:1049E0004029F0D188E0C029EFD0B1F5807FEAD12D
:1049F00077E0DBF8001001F46001B1F5800F3CD0E6
:104A000004DC91B3B1F5001FDDD175E0B1F5C00F45
:104A1000DBD0B1F5000FD6D163E001E018E030E063
:104A2000DBF8001001F0E061B1F1007F25D008DC77
:104A3000D9B1B1F1807FC6D15EE049E06CE079E0A8
:104A40009CE0B1F1407FC0D0B1F1806FBBD148E0B4
:104A5000DAF8001001F4E041B1F5005F0DD005DC9B
:104A600019B1B1F5805FAED146E094E0B1F5405F99
:104A7000ABD0B1F5804FA6D133E020688000A2D53D
:104A80008DE7DAF8001001F4E021B1F5403F6CD079
:104A900006DC61B149457AD0714594D157E037E0E1
:104AA000B1F5802F65D0B1F5A02F8CD10CE001F0CD
:104AB00095F96CE76846FFF7D3FD019867E703A80F
:104AC000FFF770FE049862E721688903F1D47AE762
:104AD000DBF8001011F440310ED0494510D071457B
:104AE000F5D13168256801F040516D077FF562AF5F
:104AF00000297FF45FAF57E720680001E7D549E759
:104B000020688000E3D503A8FFF74CFE05983EE738
:104B100022689203DBD554E7306810F480303AD035
:104B20004845D4D120680001D1D56846FFF798FDEB
:104B300002982CE7DBF8001001F0E041B1F1405F92
:104B400013D008DC71B1614521D04145BFD1206847
:104B50008000B4D437E7B1F1804F0AD0B1F1A04F53
:104B6000B2D030E7FFF7C6FC11E720684007AED5AA
:104B70001AE72068C005AAD521E708E0DAF8001096
:104B800011F04051A0D0614505D041459FD120682A
:104B900000018FD417E72068800198D5F3E6000064
:104BA000504402580090D0030080BB0000440258DB
:104BB0002DE9FE4F0446DFF8008450F8081B00255D
:104BC000FD4FC943019004F128002E4608F1240846
:104BD000009008011DD4A06E50B1B0F5801F0CD01C
:104BE000B0F5001F0ED0B0F5401F1ED001250FE01C
:104BF000386840F40030386017E00198022104F072
:104C000047FA03E00098022104F03AFB05000CD0BB
:104C10002E462088C043C00523D4A06D05281ED28F
:104C2000DFE800F00C11161B1B00A26ED8F8001074
:104C300021F440111143C8F80010EAE7386840F445
:104C40000030386009E00198002104F021FA03E007
:104C50000098002104F014FB054675B100E0012521
:104C60002E462088C043800528D4E06D80281ED0C1
:104C70000CDC90B140280ED114E0A26DD8F80010E1
:104C800021F007011143C8F80010EAE7C02813D04B
:104C9000B0F5807F10D001250FE0386840F4003077
:104CA000386009E00198002104F0F2F903E000986F
:104CB000002104F0E5FA05469DB12E462088DFF874
:104CC000F892C04309F12C0940052CD4D4F8A8006F
:104CD000B0F5800F20D00DDCA0B1B0F5001F0FD1D2
:104CE00015E0E26DD8F8001021F4E0711143C8F826
:104CF0000010E3E7B0F5C00F13D0B0F5000F10D0EF
:104D000001250FE0386840F40030386009E0019870
:104D1000002104F0BDF903E00098002104F0B0FA8E
:104D200005467DB12E462088C04300052DD4D4F819
:104D3000AC00B0F1007F21D00EDCA8B1B0F1807FD3
:104D400010D116E0D4F8A820D9F8001021F46001A1
:104D50001143C9F80010E6E7B0F1407F13D0B0F17D
:104D6000806F10D001250FE0386840F400303860C3
:104D700009E00198002104F08BF903E0009800217C
:104D800004F07EFA054675B12E462068C0438001C6
:104D90001FD4E06CD8B110280FD0202812D03028B2
:104DA00015D0012514E0D4F8AC20D9F8001021F07A
:104DB000E0611143C9F80010E7E7386840F40030BB
:104DC000386004E00198022104F062F9054675B1EB
:104DD0002E462088C043C0042BD4206EB0F5005F5F
:104DE00020D00DDCA0B1B0F5805F0FD115E0724886
:104DF000E26C2030016821F0300111430160E8E7E6
:104E0000B0F5405F13D0B0F5804F10D001250FE012
:104E1000386840F40030386009E00198002104F05F
:104E200037F903E00098002104F02AFA05468DB115
:104E30002E462088C043800429D4606EB0F5403FE0
:104E400023D010DC08B3B0F5803F14D0B0F5003F9C
:104E50000FD115E0226ED8F8001021F4E041114383
:104E6000C8F80010E5E7B0F5802F0ED0B0F5A02F00
:104E70000BD001250AE00198012104F009F903E0B3
:104E80000098012104F0FCF9054695B12E462088D2
:104E9000C04340042AD4D4F8B000B0F1405F23D01E
:104EA00010DC08B3B0F1805F14D0B0F1005F0FD117
:104EB00015E0626ED8F8001021F4E0211143C8F823
:104EC0000010E4E7B0F1804F0ED0B0F1A04F0BD04E
:104ED00001250AE00198012104F0DAF803E00098C6
:104EE000012104F0CDF9054675B12E462088C04356
:104EF00000041FD4206FD8B1B0F1805F0ED0B0F1A4
:104F0000005F10D0012514E0D4F8B020D9F80010CB
:104F100021F0E0411143C9F80010E7E7386840F498
:104F20000030386004E00198012104F0B1F8054632
:104F300075B12E462068C043C0011ED4A06CD0B10C
:104F400001280ED0022811D0032814D0012513E027
:104F5000226FD8F8001021F040511143C8F800101A
:104F6000E8E7386840F40030386004E00198022136
:104F700004F08EF80546EDB32E462068DFF838B011
:104F8000C043ABF11C0B40027ED4D4F8B400B0F5A2
:104F9000807F7AD0B0F5007F77D0B0F50C5F74D009
:104FA000B0F54C5F71D0B0F5864F6ED0B0F5A64F1E
:104FB0006BD0B0F5C64F01E02C44025865D0B0F577
:104FC000E64F62D0B0F5034F5FD0B0F5134F5CD021
:104FD000B0F5234F59D0B0F5334F56D0B0F5434F0D
:104FE00053D0B0F5534F50D0B0F5634F4DD0B0F51E
:104FF000734F00E0A1E048D0FA49884245D0FA4911
:10500000884242D0F94988423FD0F94988423CD091
:10501000F849884239D0F849884236D0F749884261
:1050200033D0F74988427FD0F64988427CD0F64990
:10503000884279D0F549884276D0F549884273D0C4
:10504000F449884270D0F44988426DD0F3498842CF
:105050006AD0F349884267D0F249884264D0F24965
:10506000884261D0F14988425ED0F14988425BD0E4
:10507000F049884258D0F049884255D0EF498842DB
:1050800052D0EF49884201E09EE04DE04CD0ED491E
:10509000884249D0EC49884246D0EC49884243D006
:1050A000EB49884240D0EB4988423DD0EA498842EA
:1050B0003AD0EA49884237D0E949884234D0E949B0
:1050C000884231D0E84988422ED0E84988422BD026
:1050D000E749884228D0E749884225D0E6498842F6
:1050E00022D0E64988421FD0E54988421CD0E549D4
:1050F000884219D0E449884216D0E449884213D046
:10510000E349884210D0E34988420DD0E249884201
:105110000AD0E249884207D0E149884204D0E1A0A0
:1051200040F27D3105F0E4FCED48016841F4807106
:105130000160FEF743FF82460EE0EA48A26C016878
:1051400021F003011143016017E700BFFEF736FFAE
:10515000A0EB0A00642835D8E1480068C005F5D501
:105160008DBBDFF880A3B4F8B4100AF1240ADAF892
:10517000000001F4407100F44070884211D0DAF868
:105180000010DAF8002021F4407142F48032CAF8AD
:105190000020DAF8002022F48032CAF80020CAF891
:1051A0000010D4F8B400B0F5807F1AD1FEF706FFE6
:1051B000029012E0FEF702FF0299411A41F2883094
:1051C00081420AD903252E462078DFF818A3C04370
:1051D0000AF1080AC00721D03CE0DAF80000800795
:1051E000E8D5D4F8B410C1F30120032858460DD0F7
:1051F000016821F47C510160B4F8B420DAF80010A1
:10520000C2F30B021143CAF80010DDE7B64A036887
:1052100002EA111223F47C511143ECE7E06F1828E5
:1052200016D005DCA0B1082808D0102804D10AE067
:1052300020280DD028280BD001250AE00198012153
:1052400003F026FF03E00098012104F019F8054659
:1052500065B12E462078C04380071ED4A06F062873
:1052600019D2DFE800F0160C11161616E26FDAF804
:10527000001021F038011143CAF80010EAE7019844
:10528000012103F005FF03E00098012103F0F8FF7E
:1052900005467DB100E001252E462078C043400739
:1052A0001FD4D4F89400062819D2DFE800F0160CB9
:1052B00011161616A26FDAF8001021F0070111433B
:1052C000CAF80010E9E70198012103F0E1FE03E0CC
:1052D0000098012103F0D4FF0546A5B100E00125A7
:1052E0002E462078C04380062BD4D4F89000B0F12D
:1052F000405F24D011DC10B3B0F1805F15D0B0F165
:10530000005F10D116E0D4F89420D9F8001021F0F5
:1053100007011143C9F80010E3E7B0F1804F0ED048
:10532000B0F1A04F0BD001250AE00198002103F055
:10533000AFFE03E00098022103F0A2FF054695B1FD
:105340002E462078C04340062BD4D4F89C00B0F5FC
:10535000406F24D011DC10B3B0F5806F15D0B0F5DC
:10536000006F10D116E0D4F89020DAF8001021F088
:10537000E0411143CAF80010E3E7B0F5805F0ED0BA
:10538000B0F5A05F0BD001250AE00198002103F0E1
:105390007FFE03E00098022103F072FF054695B1FD
:1053A0002E462078C043000618D4D4F8A000B0F5EB
:1053B000C04F12D013DC80B1B0F5005F10D0B0F553
:1053C000804F0ED19FE0D4F89C20D9F8001021F432
:1053D000E0511143C9F80010E3E799E09AE085E055
:1053E0008CE089E0000301000013010000230100AC
:1053F000003301000043010000530100006301007D
:1054000000730100008301000093010000A301006C
:1054100000B3010000C3010000D3010000E301005C
:1054200000F3010000030200001302000023020049
:105430000033020000430200005302000063020038
:1054400000730200008302000093020000A3020028
:1054500000B3020000C3020000D3020000E3020018
:1054600000F3020000030300001303000023030005
:1054700000330300004303000053030000630300F4
:1054800000730300008303000093030000A30300E4
:1054900000B3030000C3030000D3030000E30300D4
:1054A00000F303002E2E2F447269766572732F531A
:1054B000544D3332483778785F48414C5F447269C5
:1054C0007665722F5372632F73746D333268377839
:1054D000785F68616C5F7263635F65782E6300005C
:1054E000004802584C440258CFFFFF00B0F5004F6F
:1054F0000ED0B0F5204F0BD001250AE00198002115
:1055000003F0C6FD03E00098022103F0B9FE054652
:10551000E5B12E462078C043000730D4D4F884008B
:10552000B0F5805F1CD0B0F5005F1FD0F0B1B0F5D2
:10553000405F1BD040F20D51AFF2980005F0D8FA51
:10554000D4F88400B0F5805F0AD00FE0D4F8A02032
:10555000D9F8001021F460411143C9F80010D9E7CF
:105560000098022103F08CFE00B10126D4F88420BB
:10557000DAF8001021F440511143CAF800102078E5
:10558000C043C00625D4D4F89800B0F5807F11D070
:10559000B0F5007F14D098B1B0F5407F10D04FF433
:1055A000A461AFF2001005F0A3FAD4F89800B0F5AA
:1055B000807F05D10098022103F062FE00B1012630
:1055C000D4F89820D9F8001021F440711143C9F89B
:1055D00000102068C043000316D4D4F8A40038B1EA
:1055E000B0F5803F09D0B0F5003F0BD001250AE0AF
:1055F0000198002103F04CFD03E00098022103F024
:105600003FFE05468DB12E462068C043400322D49C
:10561000D4F88800B0F5801F11D0B0F5001F13D06A
:10562000B0F5401F15D0012514E0D4F8A420D9F816
:10563000001021F440311143C9F80010E4E7386844
:1056400040F40030386004E00098012103F018FEB7
:105650000546B5B12E462068C043C00327D4206D4F
:1056600040B1B0F5803F05D040F28651AFF2CC108A
:1056700005F03EFA206D70B1B0F5803F10D00125E5
:1056800014E0D4F88820DAF8001021F44011114316
:10569000CAF80010DFE7386840F40030386004E0F2
:1056A0000198022103F0F4FC0546E5B12E4620687E
:1056B000C043800005D40098022103F0E1FD00B151
:1056C00001262068C04380031BD4D4F88000B0B109
:1056D000B0F5807F0FD0B0F5007F10D0B0F5407FDF
:1056E0000DD001250CE08048226D016821F4803145
:1056F00011430160DBE7386840F400303860E5B3FF
:105700002E462068C043C00212D4606F40B1B0F191
:10571000004F05D040F2E551AFF2782005F0E8F9EE
:10572000626FD8F8001021F000411143C8F8001052
:105730002068C043C00014D4D4F8B80040B1B0F51C
:10574000804F05D040F2EF51AFF2A82005F0D0F91C
:10575000D4F8B820DBF8001021F480411143CBF8D5
:1057600000102068C043800214D4E06E50B1B0F144
:10577000807F07D040F2F95100E064E0AFF2DC2016
:1057800005F0B6F9E26ED8F8001021F080711143EF
:10579000C8F800102068C043400018D4D4F8BC00FA
:1057A00040B1B0F5004F05D040F20F61AFF20C30C0
:1057B00005F09EF9DBF8001021F40041CBF8001051
:1057C000DBF80010D4F8BC201143CBF8001020689F
:1057D000C04314D4606D58B1B0F1805F08D0B0F10F
:1057E000005F05D040F21961AFF2483005F080F952
:1057F0003D48626D016821F040511143016020680D
:10580000C043000217D4D4F88C0058B1B0F5800F13
:1058100008D0B0F5000F05D040F22361AFF27C3024
:1058200005F066F9D4F88C20DAF8001021F4400174
:105830001143CAF8001020790025C04300F0010090
:1058400028430AD00FE0D4F88020DAF8001021F4C1
:1058500040711143CAF8001053E70198002103F08A
:1058600017FC00B106462079C04300F0020028432F
:1058700005D10198012103F00BFC00B10646207907
:10588000C04300F00400284305D10198022103F031
:10589000FFFB00B106462079C04300F00800284312
:1058A00005D10098002103F0EBFC00B106462079F9
:1058B000C04300F01000284305D10098012103F0F7
:1058C000DFFC00B106462079C04300F0200005430C
:1058D00004D10098022103F0D3FC00B916B10120D5
:1058E000BDE8FE8F0020FBE74C4402582DE9F05F35
:1058F00004000D467ED02068401E3E2804D9FFA03B
:1059000040F2A73105F0F4F815B3012D20D0022D97
:105910001ED0032D1CD0042D1AD0052D18D0062D15
:1059200016D0072D14D0082D12D0092D10D00A2D15
:105930000ED00B2D0CD00C2D0AD00D2D08D00E2D15
:1059400006D00F2D04D04FF46A71ECA005F0D0F80A
:10595000DFF8E083D8F8000000F00F00A8420CD276
:10596000D8F8001021F00F012943C8F80010D8F82A
:10597000000000F00F00A8423CD12078EE4E400716
:1059800019D52069316801F07001884213D960B1DE
:1059900040280AD0502808D0602806D0702804D0AB
:1059A0004FF47171D5A005F0A3F82169306820F09B
:1059B0007000084330602078DF4F3F1D00071BD583
:1059C0006069396801F07001884215D960B14028DA
:1059D0000AD0502808D0602806D0702804D0C7A06C
:1059E00040F2D63105F084F86169386820F0700023
:1059F000084300E00DE138602078C0061DD5A0699D
:105A0000396801F4E061884217D980B1B0F5806F40
:105A10000DD0B0F5A06F0AD0B0F5C06F07D0B0F5CB
:105A2000E06F04D0B5A040F2E73105F061F8A1695C
:105A3000386820F4E060084338602078DFF8F8A286
:105A400080060AF1080A1CD5E069DAF8001001F0B6
:105A50007001884215D960B140280AD0502808D07A
:105A6000602806D0702804D0A4A040F2F93105F0D7
:105A70003FF8E269DAF8001021F070011143CAF82A
:105A800000102078800721D5E068316801F00F010F
:105A900088421BD9A0B1082812D0092810D00A28A2
:105AA0000ED00B280CD00C280AD00D2808D00E28B8
:105AB00006D00F2804D091A040F20C4105F018F850
:105AC000E168306820F00F00084330602078C0079C
:105AD00069D0A068E0B1B0F5006F19D0B0F5106FD3
